:10000000A201A1018316F0308500803086008312A2
:1000100086018501A901AA01AB01AC01A301A401DC
:10002000A501A6014E28A90A0A302902031D2B2882
:10003000A901AA0A0A302A02031D2B28AA01AB0A29
:100040000A302B02031D2B28AB01AC0A0A302C020C
:10005000031D2B28AC015420861F2B284E2801306D
:10006000A90203184A28A9010130AA020318482846
:10007000AA010130AB0203184628AB010130AC02E3
:1000800003184428AC014A280930AB000930AA0003
:100090000930A9005420051E4A284E285420051E68
:1000A0002F28861F13284E280530AD008601FF300B
:1000B00085000510851405158515290889208600F9
:1000C00080208020860105148510051585152A08D5
:1000D0008920860080208601051485140511851568
:1000E0002B088920860080208601051485140515BB
:1000F00085112C08892086008020AD0B5928080026
:100100000530A2003730A100A10B8428A20B822861
:10011000080082073F3406345B344F3466346D3454
:100120007D3407347F346F3477347C3439345E3433
:06013000793471348034C3
:02400E00F13F80
:00000001FF
